:100000000C942A000C9434000C9434000C943400AA
:100010000C9434000C9434000C9434000C94340090
:100020000C9434000C9434000C9434000C94340080
:100030000C9434000C9434000C9434000C94340070
:100040000C9434000C9434000C9434000C94340060
:100050000C94340011241FBECFE5D8E0DEBFCDBF25
:100060000E9436000C945B000C9400008FEF84BB60
:1000700080E885BB20E04CE251E00BC085B386955B
:1000800085BB88E893E1FA013197F1F70197D9F739
:100090002F5F273098F320E085B3880F85BB88E871
:1000A00093E1FA013197F1F70197D9F72F5F2730E4
:0A00B00099F720E0E3CFF894FFCFAA
:00000001FF
